S01E00005354373738395F446973706C61795F4578616D706C652E7372656320
S1130000502D00202D0100002901000029010000CD
S113001000000000000000000000000000000000DC
S113002000000000000000000000000029010000A2
S11300300000000000000000290100002901000068
S11300402901000029010000290100002901000004
S113005029010000290100002901000029010000F4
S113006029010000290100002901000029010000E4
S113007029010000290100002901000029010000D4
S113008029010000290100002901000029010000C4
S113009029010000290100002901000029010000B4
S11300A029010000290100002901000029010000A4
S11300B00000000010B5064C2378002B07D1054B37
S11300C0002B02D0044800E000BF0123237010BDC0
S11300D06C08002000000000CC9B0000084B10B509
S11300E0002B03D00749084800E000BF0748036815
S11300F0002B00D110BD064B002BFBD09847F9E72D
S11301000000000070080020CC9B0000CC9B000085
S11301100000000010B5024B9847024B984710BDF1
S1130120A90300005D1F0000FEE70000F8B52A4A9D
S11301302A4B9A4211D01A00294B9A420DD2294ACD
S113014003339B1A9B0801339B0000222348224956
S11301508C58845004329A42FAD1234A234B9A424F
S11301600AD2D34321495B1803218B4304339B18E0
S1130170002102C29342FCD11D4AFF211D4B8B4337
S11301809360FD3990235B001B4AD1501B4AD378FE
S11301900325AB4302242343D370D3780C27BB43FA
S11301A008263343D370164B987B30229043202289
S11301B010439873997BB943314399739A7BAA434B
S11301C022439A730F4A536880210B4353600E4BAA
S11301D098470E4B9847FEE7CC9B00000000002098
S11301E06C080020040000206C0800204C0D002046
S11301F000ED00E0000000000070004100500041EC
S1130200004800410040004195200000D91D000035
S1130210F0B5C64600B5C024E40510236360234B43
S1130220234A9A62234A9A6244215A5C04208243F4
S11302305A545A5C0126B24301252A43D2B25A5475
S113024012395A5C0B308446824303273A43D2B2B4
S11302505A5440226261A260174A9A62C02212066E
S113026090469A621431585CB0432843C0B2585443
S11302703320195C624691433943C9B21954802131
S11302806161A1600D49996242469A6247215A5CB4
S1130290B2432A43D2B25A541A5C38390A40213143
S11302A00A431A5404BC9046F0BDC04600440041C1
S11302B010000240000002C04000004080000040E6
S11302C0044A136A04210B431362034A034B5A8002
S11302D07047C0460004004014400000000C004079
S11302E010B5044B984704490448054B9847054BFF
S11302F0984710BDC102000000080042D408002045
S1130300AD1100001102000030B50E4B5622995C6D
S11303100125A94301242143C9B299543B20195C06
S1130320473A91430D3A1143195457215A5CAA4351
S11303302243D2B25A541A5C48390A4011310A4352
S11303401A5430BD00440041044A136A20210B436F
S11303501362034A034B5A807047C04600040040AE
S113036017400000000C004010B5054B98470022D0
S113037004490548054B9847054B984710BDC046AE
S11303804903000000140042C8080020FD130000C7
S11303900903000010B50248024B984710BDC0463F
S11303A010E000E011110000F0B5C64600B52D4B79
S11303B09847C022D2052023936193602A4B2B498E
S11303C09962C0252D069D624524195D0120814353
S11303D01955082153341151103CA0461151A03134
S11303E0234E5E505D50C327DE5D8643DE55B33F2A
S11303F0842697511F4E5E501F4E5E50C4269F5D4B
S1130400843CA7439F559F5D87439F55303E4027BB
S1130410975144461751194F5F505D503E341F5D4C
S113042087431F558027975144461751144F5F50F7
S11304305D50C727DD5D8543DD558025ED0595516C
S113044015515D500F4A5A5036315A5C82435A5402
S11304500D4B98470D4B98470D4B984704BC90465D
S1130460F0BDC046BD14000000440041200000401F
S11304700800004010000240000002C0400000409C
S113048080000040004000C0E10200006903000059
S11304909503000010B50400817280780021034B9D
S11304A098472000024B984710BDC046F107000052
S11304B01D08000010B50400817280780121034BEF
S11304C098472000024B984710BDC046F107000032
S11304D01D08000010B504008078034B98472000E5
S11304E0024B984710BDC046F10700005D080000AC
S11304F070B50600C0780121074DA8470A20074CB3
S1130500A047F0780021A8471920A047F0780121DE
S1130510A8476420A04770BDF1070000110800003F
S113052070B5040004A8007805AD2D782370E5703B
S1130530A070002363702181E28001226F4BE2529C
S11305400132023BE2526E4B0632DA800521998079
S11305506C4B0731D9809A806B4B0832DA80053AAC
S11305609A806A4B0932DA80063A9A802000684BF6
S113057098472000674B984736212000664EB047C5
S113058000212000654DA8473A212000B0470521ED
S11305902000A847B2212000B0470C212000A84722
S11305A00C212000A84700212000A8473321200067
S11305B0A84733212000A847B7212000B0473521A0
S11305C02000A847BB212000B04719212000A847DC
S11305D0C0212000B0472C212000A847C2212000C0
S11305E0B04701212000A847C3212000B0471221B1
S11305F02000A847C4212000B04720212000A8479C
S1130600C6212000B0470F212000A847D021200098
S1130610B047A4212000A847A1212000A847E02139
S11306202000B047D0212000A84704212000A8477B
S11306300D212000A84711212000A84713212000E4
S1130640A8472B212000A8473F212000A847542178
S11306502000A8474C212000A84718212000A847C3
S11306600D212000A8470B212000A8471F212000AE
S1130670A84723212000A847E1212000B047D0212A
S11306802000A84704212000A8470C212000A847E7
S113069011212000A84713212000A8472C21200065
S11306A0A8473F212000A84744212000A847512102
S11306B02000A8472F212000A8471F212000A84779
S11306C01F212000A84720212000A8472321200023
S11306D0A84721212000B04720780121104DA847C8
S11306E020780021A84711212000B04778200D4B25
S11306F0984729212000B047002070BD0E02000059
S1130700200000200000002008000020100000202D
S1130710A9070000F104000095040000B5040000DE
S1130720F107000011080000F0B585B004000E00C8
S1130730019202930AAB1F882A21144DA8470396FD
S1130740310A2000124EB0476B46197B2000B04797
S1130750029B190A2000B0476B46197A2000B04763
S11307602B212000A847019B190A2000B0476B46A3
S113077019792000B047390A2000B047F9B22000A7
S1130780B0472C212000A84705B0F0BD9504000017
S1130790B5040000D200FC20C0000240D808104379
S11307A0C908C9020843704710B542780B4B5A7008
S11307B002781A7082789A70C278DA7002891A8183
S11307C0C288DA8001221A71054C06492000064BC2
S11307D098472000054B984710BDC046F4080020F8
S11307E0D4080020100B0020E912000001120000C0
S11307F01F2318401E3B8340002904D19422C021AA
S1130800C9058B5070479822C021C9058B50F9E760
S113081010B5014B984710BD25110000F8B506002E
S113082003781F252B40012422009A40C027FF058E
S11308309423FA50064BC25A01000A31054B18683A
S1130840054B984733781D40AC409823FC50F8BDC5
S11308500E020000100B00204511000010B5832388
S11308609B00C25A01000B31024B1868024B984797
S113087010BDC046100B002045110000F0B5DE4647
S113088057464E46C0B582B004000D0016000193D1
S1130890002907DBC388994204DA002A02DB0389B2
S11308A09A4205DB02B01CBC91469A46A346F0BDB1
S11308B02A23C372CBB203734A1C1212427301334C
S11308C083738327BF0001239B46C3530078002111
S11308D01C4B9A469847002120001B4B9946984789
S11308E02D12E5720425E55301212000C847F3B217
S11308F02373721C121262730133A3732B23E372EA
S11309005B46E35300212000C8473612E672E553E4
S113091001212000C8472C23E3725B46E3530021E6
S11309202000C847019A130AE37222730223E35397
S1130930A0780121D0472000044B9847207801215A
S1130940D047AFE7F1070000D50400005D080000C0
S1130950F0B583B004001E0008AB1D88C38899421B
S113096034DA03899A4231DAB0180138834201DC5F
S11309709B1A1EB289B292B2531E9B199BB200936A
S11309800B002000134FB8477300002B20DD2E0A04
S113099000200022511C89B22018C672023292B281
S11309A06118CD7210009A42F4DB013A83239B0054
S11309B0E252A0780121084DA84720780021A847D9
S11309C02000064B984720780121A84703B0F0BDCA
S11309D00022EAE729070000F10700005D08000093
S11309E0F0B583B004001E0008AB1D88C38899428B
S11309F033DA0089824230DA70180138834201DC2C
S1130A005B1A1EB289B292B24B1E9B199BB2009222
S1130A102000144FB8477300002B20DD2E0A00205D
S1130A200022511C89B22018C672023292B2611897
S1130A30CD7210009A42F4DB013A83239B00E25208
S1130A40A0780121084DA84720780021A84720005C
S1130A50064B984720780121A84703B0F0BD002237
S1130A60EAE7C04629070000F10700005D0800001E
S1130A70F0B587B00F0019000CAB00241C5F0DAB60
S1130A801E88009605910B000492390003900F4DC7
S1130A90A847621E049B9C46624412B20096059BC2
S1130AA039000398A84700962300049A3900039854
S1130AB0074DA84705990139C91909B200962300C1
S1130AC0049A0398A84707B0F0BDC046E1090000A6
S1130AD051090000F0B585B005000C0003910AA986
S1130AE00020085E0BA90F88A1B2CB189CB292B269
S1130AF0631E9BB20138101880B200902800164E75
S1130B00B0472600610000290ADD380A00220023CC
S1130B10AA18D072177302339BB21A008B42F7DB08
S1130B20630083229200AB52A87801210B4FB8478F
S1130B3028780021B847039CB44206DA084F2800FD
S1130B40B847013424B2B442F9DB28780121034BBD
S1130B50984705B0F0BDC04629070000F107000022
S1130B605D080000F0B583B005000C00C7887B1E4B
S1130B709BB20289013A92B2009200220021164EE1
S1130B80B0473E00790000290ADD200A0022002334
S1130B90AA18D072147302339BB21A008B42F7DB8B
S1130BA07F0083239B00EF52A87801210B4CA047C0
S1130BB028780021A047002E07DD0024084F2800D4
S1130BC0B847013424B2B442F9DB28780121034B3D
S1130BD0984703B0F0BDC04629070000F1070000A4
S1130BE05D080000F0B5DE4657464E464546E0B582
S1130BF089B00C0017009846039312AB1A881100B1
S1130C0043466A469380958801235B1B1BB29B462F
S1130C10EB035B1B5B001BB20793BBB29A46EA185B
S1130C2012B201910B0021000290484EB047534686
S1130C305A1B12B2019B21000298B047A3B204933D
S1130C40E91809B2019C23003A000298B047049BBA
S1130C50591B09B223003A000298B0474346002BBF
S1130C606DDD01239846394D59E043461BB2059387
S1130C7042465600B2B29146531C5B441AB29346A4
S1130C80049B1E004644B6B232B211006B469C89E6
S1130C90524617193FB2019B3A0006910298A847A1
S1130CA04846361A36B2019B3A0031000298A847EA
S1130CB05046071B3FB2019B3A0006990298A84789
S1130CC0019B3A0031000298A847049B1F193FB2C8
S1130CD046465644B6B232B2019B06923900029897
S1130CE0A847049B1C1B24B2019B069A210002986E
S1130CF0A8474A46B61A36B2019B32003900029F11
S1130D003800A847019B320021003800A84742461A
S1130D10531C9AB29046039A059B9A420FDD5B4698
S1130D20002BA2DB039B013B1BB20393079B023303
S1130D309BB21AB207925B441BB29B4695E709B07B
S1130D403CBC90469946A246AB46F0BD7D080000E7
S1130D50F0B5DE4657464E464546E0B58DB00390A5
S1130D60069107921E0016AB197817AB0020185E87
S1130D7018AB1B889946B2B20124A41A24B2D30337
S1130D809B1A5B001BB29846002E79DD83B2089350
S1130D9003339BB29B46012501230B40049302239A
S1130DA00B4005935B4602932CE06B46198B9A8BA0
S1130DB0B3B2089801309A465B00C3181BB20A927A
S1130DC05046121A12B20991491909B248460090C4
S1130DD003982F4FB8476B461B891BB20A9A521BC4
S1130DE012B20999514409B24F4600970398284F0B
S1130DF0B8471BE00135ADB2029F0237BBB2029384
S1130E005E453DDD002C08DB013E36B2434602332D
S1130E109BB21AB290461C1924B22BB29B466B00AB
S1130E2001331C1924B2049B002BBED1059B002B5B
S1130E30E0D06B46198B9A8BB3B2089801301F002F
S1130E405B00C3181BB210000A920B97C21B12B2AC
S1130E500991491B09B24F46009703980C4FBA46B3
S1130E60B8476B461B891BB20A98421B12B20998F9
S1130E700B99411A09B24F4600970398D047B9E736
S1130E800DB03CBC90469946A246AB46F0BDC04668
S1130E9051090000F0B587B016001F000CAB1C8888
S1130EA0BAB2530001331BB2B21A12B200940591C4
S1130EB00490074DA8470294012301930233009341
S1130EC03B00320005990498024CA04707B0F0BDDE
S1130ED051090000510D0000F0B5DE4657464E465C
S1130EE04546E0B58DB005900A910B9216AA80CACA
S1130EF012780492F988B88807220240541EA2414D
S1130F00C0081218203B4B4353431E000023079391
S1130F10002961DD344B9A46B846370042E00AABFB
S1130F201B8F089A511909B2099A05982F4FB8478F
S1130F30073C62426241039B9C469444634603938C
S1130F40013543469B884E44B6B2AB421CDDEB17D9
S1130F505B0FEC1807221440E41A43461B68039AFB
S1130F609A5C802323411342E2D0049B012BD6D008
S1130F706B4610229B5E31B20AAA128F0192009333
S1130F80069A0598D047D3E76746072213405A1EAE
S1130F909341FF18079B01331A0007934346DB88EC
S1130FA0934219DD43469B88002BEEDD6B461B8A7A
S1130FB099466B469B8B6A46928D49465943511814
S1130FC009B206916946098D08910E0000259B1807
S1130FD01BB209930397BAE70DB03CBC90469946FF
S1130FE0A246AB46F0BDC046D50A00007D0800000D
S1130FF0F0B5D6464F4680B587B004900D000592F3
S11310001C000EAB80CB1B789946109B9A46237824
S1131010002B11D00B4E524602924A460192009781
S1131020059A29000498B047BB884A465343ED18F3
S113103001342378002BEED107B00CBC91469A46BC
S1131040F0BDC046D90E0000F0B5DE4657464E4608
S11310504546E0B589B0029088460792994612AB9E
S113106000229B5E1A00049313AB00215B5E180000
S1131070059314AB1B8803930732D11707230B4046
S11310809B18DB10069300239A46002836DD049B48
S11310905F1EBFB201373B004F46994620E0013442
S11310A0A14516D0A1B222B2D3172B409B18DB1056
S11310B0009ABA18D25C28000840802303411342E6
S11310C0EDD0414409B2039B019A02980F4EB047F8
S11310D0E5E7534601331BB29A46059B53450DDDA4
S11310E0049B002BF5DD069E53465E430024072532
S11310F0079B53441BB201930096D3E709B03CBC51
S113110090469946A246AB46F0BDC0467D08000015
S113111010B5024B1860024B984710BD8808002098
S1131120E918000010B5044B1C68044B98470100F3
S11311302000034B984710BD88080020B514000018
S1131140FD18000070B506000C00150000280DD035
S11311500800431E9841C0B234220549054B984704
S113116033682A0021003000984770BD0020F3E75F
S1131170D86E00007514000070B506000C00150050
S113118000280DD00800431E9841C0B23D220549F5
S1131190054B984773682A0021003000984770BDBA
S11311A00020F3E7D86E00007514000070B5040049
S11311B00D00002816D00800431E9841C0B24022FA
S11311C009490A4B98476560201D2900084B984738
S11311D0002806DB074BA382074B2361074BE36020
S11311E0002070BD0020EAE7EC6E000075140000DA
S11311F0591600000080FFFFAD12000071120000BC
S113120010B50400431E9841C0B257220349044B51
S11312109847201D034B984710BDC046EC6E000054
S1131220751400005117000030B587B004000D009C
S1131230002814D00800431E9841C0B2B3220949C3
S1131240094B98472B6803936B680493AB6801932D
S11312500593201D03A9054B984707B030BD002016
S1131260ECE7C046EC6E0000751400008517000022
S113127070B584B004000E001500431E9841C0B23E
S1131280A3220749074B984700230293019603952D
S113129020000C3801A9044B984704B070BDC04627
S11312A0EC6E0000751400002912000070B584B0C3
S11312B004000E001500431E9841C0B2872207495E
S11312C0074B9847029600230193039520000C389E
S11312D001A9044B984704B070BDC046EC6E0000F1
S11312E0751400002912000070B504000D000028D8
S11312F00BD00800431E9841C0B2BD220449054BDF
S113130098470C342C60002070BD0020F5E7C046DF
S1131310EC6E000075140000F8B5CE46474680B563
S113132004000F009046002826D0002926D0100083
S1131330431E9841F1221249124B98470834124D2A
S11313402000A8470028FBD00026104B99460E4DDC
S1131350B95D2000C8472000A8470028FBD001360B
S11313604645F5D30A4D2000A8470028FBD030009D
S11313700CBC90469946F8BD0020DBE70020D9E775
S1131380086F0000751400003916000029160000CB
S113139043160000F8B5CE46474680B504000F005A
S11313A0904600281DD000291DD01000431E9841EE
S11313B0862252000D490E4B9847002608340D4DE5
S11313C00D4B99462000A8470028FBD02000C847B1
S11313D0B85501364645F5D330000CBC90469946C5
S11313E0F8BD0020E4E70020E2E7C046086F0000F3
S11313F0751400004D1600003116000070B505008C
S11314000C00002813D00800431E9841C0B23422B7
S11314100849094B9847280008302100074B984792
S1131420002803D1064B6B60064B2B6070BD002077
S1131430EDE7C046086F000075140000E9150000D0
S1131440951300001913000010B50400431E9841C1
S1131450C0B253220449054B984720000830044B7E
S11314609847002010BDC046086F000075140000A6
S113147015160000002800D100BE70470300064A7C
S11314801268002A04D0044A1068C3181360704715
S11314900249014A1160F6E78C080020502D002013
S11314A001204042704780239B014B60002070471D
S11314B000207047FA235B015843704710B5064B70
S11314C05A685A60054B9847054B9847054B98470F
S11314D0FF20054B984710BD004000410D1500004A
S11314E095180000D9180000ED140000C3070AD5B0
S11314F0054B802252009A60832252025A601A00DD
S11315005378DB09FCD17047000C0040064B1A7A73
S1131510D2B21A725A7AD2B25A729A7AD2B29A72EF
S1131520DA7AD2B2DA72704700040040C369DB078A
S113153009D403680222134303600132C3691A42C7
S1131540FCD10020704704204042FBE710B50400A2
S11315501F4BC3189B0ADBB2032B04D01D4A1E4940
S113156000201E4B9847E369DB0718D40322E36984
S11315701A42FCD123689B070BD5236802229343AC
S113158023600132E3691A42FCD10222E3691A4260
S1131590FCD1052323600322E3691A42FCD1012212
S11315A0E3691A42FCD10E4B23600322E3691A4219
S11315B0FCD1C0239B0263600722E3691A42FCD179
S11315C0084BA3810023A3733022A354002010BD31
S11315D000F8FFBD3A020000246F000075140000FB
S11315E00400104004C5FFFF70B505000C00431E45
S11315F09841C0B2B4220449044B98472C6020009F
S1131600034B984770BDC046246F0000751400005A
S11316104D1500000268136802210B431360013169
S1131620D3691942FCD17047036889B219857047A0
S11316300368188DC0B270470368187E01231840F0
S113164070470368187E8007C00F70470368187ED0
S11316504007C00F7047000070B505000C00354B03
S1131660CB189B0ADBB2002B0BD0002850D0601E95
S11316708441E0B2304A3149314B98470D20404211
S113168045E000284CD12C4A2C4900202C4B98478B
S1131690E369DB0718D40322E3691A42FCD1236807
S11316A09B070BD523680222934323600132E3692D
S11316B01A42FCD10222E3691A42FCD10D232360B1
S11316C00322E3691A42FCD10122E3691A42FCD1E4
S11316D02C602000431E9841C0B21A4A1749184B87
S11316E09847194B23600322E3691A42FCD18023F3
S11316F09B0263600722E3691A42FCD1002323732F
S11317003022A35401332B71104BEB80002070BDA9
S1131710094A0A4900200A4B98470D204042F6E73F
S11317200800431E9841C0B2034A0449044B984739
S1131730AEE7C04600F8FFBD1B090000246F00009F
S113174075140000E50800000C000100FF01000012
S113175010B5041E0BD00068431E9841C0B2054A60
S11317600549064B98472068054B984710BD002053
S1131770F5E7C04676090000246F000075140000E8
S11317802D150000F0B5DE4657464E464546E0B5F9
S113179083B081460E0004680B6898464D6803794F
S11317A00193002815D02000431E9841C0B2364A48
S11317B03649374B9847E3695B073FD10323E06918
S11317C01840FCD123689B073BD5020001239C46AB
S11317D009E00020EBE7013501325BB2002B16DB98
S11317E0B368834227D9237EDBB2042119422BD06C
S11317F0A76A002DF0D02F7001990129EBD93F0A77
S11318006F700235E8E701218B46D84437E00123A5
S11318105B42638381332376132040420322237E79
S11318201342FCD00323237603B03CBC9046994674
S1131830A246AB46F0BD9342D5D8EFE70420404220
S1131840F2E714204042EFE79042C6D867461F42B1
S1131850C3D04F46FF88BA464746002F0FD03F7883
S1131860BA4601990129CED947467F783F02BB4643
S1131870574659460F43BA4602218B46D844013095
S11318805746A762A9E7C0467B0A0000246F000000
S1131890751400000E4B196A1A6A0E480140920F23
S11318A09207022002430A431A629A6902439A6128
S11318B01A7F1F210A401A7719000822CB681A429E
S11318C0FCD0034A136A80210B4313627047C0465D
S11318D0000800400000FF0F024A936902218B4375
S11318E09361704700080040024B034A5A60052286
S11318F01A60704710E000E0FFFFFF0070B50B0EA8
S11319005E1EF6B2002B13D034000E4A0E4D80201A
S113191040025560956013680342FCD0013CE4B278
S1131920FF2CF6D13306F61A084B9C466144711815
S1131930044B596099601900802252020B681342CB
S1131940FCD070BD10E000E0FFFFFF00010000FFCD
S113195010B582B02623019301330093043BF02297
S1131960F0210248024CA04702B010BD140B002025
S11319702105000070B5C025ED058026F6059823E5
S1131980EE506420034CA0479423EE506420A047FB
S113199070BDC04625110000F0B583B0174BDB883D
S11319A0002B28D00024154D154F164E0822AB5E8F
S11319B021B2FC22D200009200222800B847322033
S11319C0B0470834A4B2EB88A342EFD8042B12D951
S11319D004240A4D0A4F0B4E0822AB5E21B21F228B
S11319E0009200222800B8473220B0470834A4B23D
S11319F0EB88A342F0D803B0F0BDC046140B00201E
S1131A005109000025110000F0B583B0174B1B8964
S1131A10002B28D00024154D154F164E0622AB5E20
S1131A2022B2F8210902009100212800B84732208F
S1131A30B0470834A4B22B89A342EFD8042B12D99F
S1131A4004240A4D0A4F0B4E0622AB5E22B20A4909
S1131A50009100212800B8473220B0470834A4B2CE
S1131A602B89A342F0D803B0F0BDC046140B00206C
S1131A70E109000025110000FF070000F0B5C6468B
S1131A8000B582B0204C214B0193202300932033D6
S1131A902022202120001E4DA847F8263602019658
S1131AA0402300932033102210212000A847194B13
S1131AB09846019310270097482380221021200084
S1131AC0A847FC23DB00019330230093203B8022B2
S1131AD0A8212000104DA8474346019300971823DE
S1131AE0D82210212000A847019618230093083318
S1131AF0D82240212000A847FA208000074B9847AD
S1131B0002B004BC9046F0BD140B0020FF07000097
S1131B10710A0000E0FF0000D50A00002511000052
S1131B20F0B583B01C4BD88806211C4B984701386C
S1131B3084B2042C11D9184D194F1A4E23B22A8994
S1131B405208E98849081F2000902800B84732202D
S1131B50B047023CA4B2042CF0D8FA20C000114EC5
S1131B60B0470D4C10492000104B9847E5880621DA
S1131B7028000A4B9847013803B2228952086908A1
S1131B80F820000200902000094CA047FA204000F1
S1131B90B04703B0F0BDC046140B00207D1F000009
S1131BA0E50B000025110000FFFF0000650B00009D
S1131BB0950E0000F0B5CE4600B584B00024029422
S1131BC0012501952E4B99460093412305220521B9
S1131BD02C482D4EB047029401952C4F0097582362
S1131BE0052240212748B047029401954B460093B3
S1131BF0274B182205212348264EB047029401950D
S1131C000097254B302205211E48B047F8242402B2
S1131C10029401950097214B442205211948B047AD
S1131C200294019500971E4B582205211548B04790
S1131C301F240294019500971A4B6C220521114828
S1131C40B047029401950097174B802205210D4857
S1131C50B047029401954B460093144B96220521FC
S1131C600848B0470294022301930097104BBE2208
S1131C7005210448B04704B004BC9146F0BDC046F9
S1131C8018000020140B0020D90E000008000020CA
S1131C90349B0000F10F0000409B0000509B0000AB
S1131CA0609B00006C9B00007C9B00008C9B0000F0
S1131CB0989B0000F0B585B000230293EF330193A5
S1131CC00093274B002200212648274CA0473220AE
S1131CD0264B9847FF24234D254FE243D2B20823D5
S1131CE021002800B8470290EF23019300931C4B76
S1131CF00022002128001C4EB047193CE4B2EC2C11
S1131D00EBD13220194CA047164D00212800194B65
S1131D109847194B0293EF2301930093104B002231
S1131D2000212800104DA8473220A047FF240D4D64
S1131D300F4FE243D2B2082321002800B847029093
S1131D40EF2301930093064B002200212800064E46
S1131D50B047193CE4B2EC2CEBD105B0F0BDC04661
S1131D60406F0000140B00204910000025110000F2
S1131D7095070000650B0000FFFF0000F8B5F8218F
S1131D8009021048104CA047C027FF059C26802557
S1131D90ED05BD5100210B48A047BD511F21094845
S1131DA0A047BD5109490748A047BD510849054806
S1131DB0A047BD5107490348A047BD511F21014811
S1131DC0A047F8BD140B0020650B0000FF070000BE
S1131DD0FFFF0000E0FF0000F0B5CE4600B5204B49
S1131DE09847204B9847204B984700211F48204B89
S1131DF09847204B99461E4CC8471F4E31001B483C
S1131E00A0471E4B9847FA27BF0038001C4DA8472F
S1131E1031001648A0471B4B98473800A8473100AB
S1131E201248A047184B98473800A84700210F488C
S1131E30A047164B98473800A84731000B48A047E5
S1131E40134B98473800A84731000848A047114B66
S1131E5098473800A84731000448A047CCE7C0465B
S1131E60150100007519000051190000140B002021
S1131E70650B00007D1D0000FFFF0000B51B000086
S1131E8025110000091A0000991900007D1A0000AC
S1131E90211B0000B51C000010B50B00002809D15F
S1131EA011001800054B9847002800DB10BD0120E5
S1131EB04042FBE701204042F8E7C046151F0000FE
S1131EC010B50B000138022809D811001800054B81
S1131ED09847002800DB10BD01204042FBE70120A9
S1131EE04042F8E7391F000070B50600064D2B6824
S1131EF098680021054CA0472B6858680021A0472A
S1131F00034B1E6070BDC0462800002071210000F4
S1131F109008002010B50400054B1868002804D070
S1131F208AB22100034B984710BD0020FCE7C0464D
S1131F30900800207911000010B50400054B1868C2
S1131F40002804D08AB22100034B984710BD00201A
S1131F50FCE7C046900800204511000010B5044C71
S1131F602000044B98472000034B984710BDC046FF
S1131F70C808002049140000E91E0000002243089C
S1131F808B4274D303098B425FD3030A8B4244D33D
S1131F90030B8B4228D3030C8B420DD3FF2209027F
S1131FA012BA030C8B4202D31212090265D0030B3E
S1131FB08B4219D300E0090AC30B8B4201D3CB0334
S1131FC0C01A5241830B8B4201D38B03C01A524176
S1131FD0430B8B4201D34B03C01A5241030B8B4278
S1131FE001D30B03C01A5241C30A8B4201D3CB0263
S1131FF0C01A5241830A8B4201D38B02C01A524148
S1132000430A8B4201D34B02C01A5241030A8B424A
S113201001D30B02C01A5241CDD2C3098B4201D362
S1132020CB01C01A524183098B4201D38B01C01AE0
S1132030524143098B4201D34B01C01A5241030957
S11320408B4201D30B01C01A5241C3088B4201D306
S1132050CB00C01A524183088B4201D38B00C01AB3
S1132060524143088B4201D34B00C01A5241411ADA
S113207000D20146524110467047FFE701B50020E7
S113208000F006F802BDC0460029F7D076E7704795
S11320907047C04670B50D4E0D4D0024AD1BAD10FC
S11320A005D0A300F35801349847A542F9D107F0AD
S11320B07BFD084E084D0024AD1BAD1005D0A300D8
S11320C0F35801349847A542F9D170BDB49B000080
S11320D0B49B0000B49B0000BC9B0000F0B58307D8
S11320E043D0541E002A3FD0CEB20200032502E0A2
S11320F01A00013C38D3531C16702B42F8D1032C20
S11321002AD9FF220A40150215432A0415430F2C2D
S113211014D927001A00103F3E09013636019E19D2
S1132120156055609560D56010329642F8D10F2243
S113213097431037DB191440032C0DD91A00271FBD
S1132140BE080136B6009E1920C2B242FCD1032259
S113215097430437DB191440002C05D0C9B21C196D
S1132160197001339C42FBD1F0BD14000300C6E793
S11321704A424A41802310B55200DB0000F002F8C5
S113218010BDC046F0B54746CE4680B51F00634B30
S113219083B01D68040088461600002D02D0AB6B86
S11321A0002B66D0022E05D0012E00D9A1E0002F0D
S11321B000DA9EE0636EDB0733D52100280000F0CF
S11321C06DF9216B002908D023004033994202D0D5
S11321D0280000F067FA002323630023A3616360EF
S11321E00C22A35E1A063DD44D4A1340A381022E4D
S11321F01ED001AB6A462100280000F05FFBA389D2
S11322001843A081002F38D1009F380000F086FBCE
S11322108046002800D16FE08022A3891343A38164
S11322202EE0A3899B05C8D4A06D00F043FBC4E74E
S11322300025022213430022A260220043322260BE
S113224022610122616EA3816261114204D19B0566
S113225002D4A06D00F030FB280003B00CBC904603
S11322609946F0BD2169280000F01CFA0C22A35EF7
S1132270BAE7280000F06CF994E74346002BC4D079
S1132280AB6B002B27D0009B9F422AD08023A289CE
S11322901B0113431BB2A381012E26D042462260A8
S11322A0226108229BB267611A400BD0DA0710D56D
S11322B000220125A260626E7F42A7611540C6D04C
S11322C00025C9E7A2600125626E1540BFD0002534
S11322D0C2E7A760F7E7280000F03AF9009B9F42A5
S11322E0D4D10C22A35E012ED8D101221343A381A1
S11322F0D4E701256D42AFE7009B9946BB4205D068
S1132300180000F00BFB8046002804D101250C22A4
S1132310A35E6D428DE74F467EE7C046280000204D
S11323205CF3FFFF034B10B5002B02D0024800F012
S113233005F810BD00000000D125000010B5010013
S113234000230022002000F02BFE10BDF0B5C6468D
S113235000B50C23CA5E804693B20C00190740D422
S113236080231B0113436268A381002A00DC70E010
S1132370A66A002E31D042464146156800229BB21F
S11323800A60DA0400D469E0226D5B0706D563684D
S1132390D21A236B002B01D0E36BD21A0023E1691C
S11323A04046B047431C3DD0A3893A4A134000221B
S11323B0626022691BB2A3812260DB0447D44346D6
S11323C0216B1D60002908D023004033994202D0BC
S11323D0404600F067F900232363002004BC9046C4
S11323E0F0BD2669002EF8D022682660951B0022D5
S11323F09B0700D16269A260002D04DCEDE736186A
S11324002D1A002DE9DD2B003200E1694046676A90
S1132410B8470028F3DC40220120A389404213433B
S1132420A381DBE7434619681D29F4D81A4B01221E
S1132430CB409A43EFD1A389164E626033402269A0
S11324401BB2A3812260DB04B9D50029B7D1206572
S1132450B5E7E26B002A00DD8AE7BEE7002201232C
S1132460E1694046B0470200431C02D0A389A66A32
S11324708BE743461B68002BF8D01D2B01D0162B8D
S113248003D1434600201D60A8E74021A3890B43E4
S1132490A381A3E7FFF7FFFF0100402070B505000B
S11324A00C00002802D0836B002B16D00C22A35EF4
S11324B00026002B0FD0626ED20701D49B0513D5E2
S11324C021002800FFF742FF636E0600DB0702D4F9
S11324D0A3899B0504D5300070BD00F039F8E5E709
S11324E0A06D00F0E9F9F6E7A06D00F0E3F9E7E785
S11324F010B5024900F0B4F910BDC046B93000006F
S1132500002310B504000360436083608181436647
S1132510C281036143618361082200215C30FFF7BB
S1132520DDFD2000064BE4612362064B58306362F4
S1132530054BA362054BE36200F0B8F910BDC04639
S1132540DD2E0000052F0000412F00006D2F00003C
S113255070B50400144D280000F0ACF9A36B002BF7
S11325601DD1124A0421E263B8229200A350B92378
S113257003229B00E2500833E218043BE2506068F7
S11325800022FFF7BDFF01220921A068FFF7B8FF71
S113259002221221E068FFF7B3FF0123A36328009E
S11325A000F08AF970BDC046300D0020F12400000F
S11325B010B5024800F07EF910BDC046440D00205D
S11325C010B5024800F078F910BDC046440D002053
S11325D070B5094B094CE41AA41009D0084AA5188F
S11325E0AD00ED182B68013C9847043D002CF9D14F
S11325F007F0E4FA70BDC046C89B0000CC9B000005
S1132600FFFFFF3FF8B50C00060000F045FC204F2B
S1132610BB685D6803239D431E4B2C1B9C4664448E
S1132620240B1D4B013C24039C4207DD0021300098
S113263000F042FCBB685B19984204D0300000F003
S113264033FC0020F8BD6142300000F035FC431C2F
S11326500DD00122BB682D1B15435D600F4B30006C
S11326601A68141B1C6000F01FFC0120EAE700211B
S1132670300000F021FCBA68831A0F2BDEDD084914
S11326800968401A0549086001210B435360D5E7E6
S11326905C040020EF0F0000FF0F000094080020EE
S11326A064080020F8B504000D1E3CD000F0F4FBD3
S11326B02900083948680123050003269D434A1967
S11326C09C46614F5368B343BE68B24256D06646D7
S11326D0536006420AD13E0008680836091A2D18CC
S11326E08868B04265D0CE68C660B0600120D61854
S11326F07668064233D0554B284348604D519D427D
S113270012D8ED08FF3BAA10FF3B93407A68ED0016
S113271013437B60EF19BB68CF608B60B960D960ED
S1132720200000F0C1FBF8BD680A042850D8A809AD
S1132730020039303832C00038180838836803265C
S113274098424CD05A68B243954230D29B68984222
S1132750F8D1C368CB6088609960C160E0E7ED1888
S11327603B4E9368B34242D0D2682843DA60936008
S1132770364B48604D519D42D6D8C2E76246EB18AD
S1132780024206D10A68891A88689B18CA68C2601E
S1132790906001221A434A602E4AB960126893423B
S11327A0BED32D4B20001968FFF72CFFB8E71800A3
S11327B0CFE76646D018406830423FD190685D1933
S11327C0D368C360986063462B434B604D51A7E7C1
S11327D0142814D802005C305B32C000ACE701233B
S11327E0921093407A6813437B600300B2E7284356
S11327F0D9609960CB608B6048604D5190E7542854
S113280005D8280B02006F306E32C00094E7AA226C
S11328105200904205D8E80B020078307732C000AD
S11328208AE70E4A904205D8A80C02007D307C321B
S1132830C00081E7FE207E2280007DE763462B43B3
S11328404B6015606CE7C0465C040020FF0100008B
S11328506404002068080020C40800205405000017
S1132860F8B54746CE4680B5B8278046BF004744F2
S113287089460026002F14D07B68BC685D1E0DD4E9
S1132880A389012B07D90E22A35E013303D02100B3
S11328904046C84706436834013DF1D23F68002FE3
S11328A0EAD130000CBC90469946F8BD7047C0464A
S11328B07047C0467047C0467047C04670B50C00AC
S11328C01E000E23C95E90B01500002915DB01AA75
S11328D000F058FC002810DBF022029B1202134087
S11328E00D4A8020944663445A4253413360802306
S11328F0DB002B60000110B070BD00233360A3899E
S11329001B0603D5402300202B60F4E78023DB0063
S11329102B600020EFE7C04600E0FFFF10B5034B3B
S11329200100186800F004F810BDC046280000201B
S1132930F0B557464546DE464E46E0B50D000B352C
S113294083B00700162D00D89FE007239D4300D5D0
S1132950C4E0A94200D9C1E000F09EFAF823FF3395
S11329609D4200D88FE2680A00D1BBE0042800D958
S113297062E138239846A80980443930C100D24E18
S113298071180839CC68A14219D0032362689A43AC
S11329901300521B0F2A00DDAAE0002A00DB88E0A6
S11329A003239C4608E06246636893435A1B0F2A3C
S11329B000DD9DE0002A7CDAE468A142F3D1320014
S11329C034690832944200D190E103236168994349
S11329D08946491B0F2900DD62E1726132610029D9
S11329E000DB87E0B94A4B46914500D930E1DB086A
S11329F0FF3A9910FF3A8A40DB0071689B190A4339
S1132A0099687260E360A1609C601300CC6001214E
S1132A108210914099426FD80B4205D10322904312
S1132A20490004300B42FBD003239846C300994667
S1132A30B144CC4682466346DC68A44507D157E1DD
S1132A40002A00DB66E1E468A44500D150E1424677
S1132A50636893435A1B0F2AF2DD012080466119F3
S1132A6005436560A068E5680836C560A86040460F
S1132A70F160B16010434860CE608E603800E2506F
S1132A8000F012FA2000083021E0102926D838007E
S1132A9000F002FA1025182302208B4EF3181A00B6
S1132AA05C68083A944200D12EE1032362689A4399
S1132AB01300E268A168CA6091600122E3185968B2
S1132AC038000A435A6000F0EFF92000083003B0E0
S1132AD03CBC90469946A246AB46F0BD0C23002070
S1132AE03B60F4E780213F2340208900984646E775
S1132AF0404664E74B46E0E70323B46862689A43C0
S1132B009046AA4203D3531B0F2B00DD86E023001B
S1132B1043446F4A01936F4B93461B681268EB184A
S1132B20013200D168E16C4A944663441B0B1B03D9
S1132B3000930099380000F0BFF903008146013387
S1132B4061D0019B834200D9FFE0644B009A9A460E
S1132B501B689C46534662441A60019B11008342E1
S1132B6000D155E15B461B68013300D16CE14B4653
S1132B70019A9B1A59185346196007234A46134071
S1132B8000D124E1082189465549D21A9144CB1A2F
S1132B90009A38004A441105090D5B1A19009B4636
S1132BA000F08AF9431C00D142E14B46C01A0123CC
S1132BB05844184353461B685B4419005346196034
S1132BC04B46B3605860B44213D043460F2B00D831
S1132BD0E8E04346072260680C3B9343063A024010
S1132BE005201A436260E218506090600F2B00D9F0
S1132BF022E13C4B1A68914200D919603A4B1A6899
S1132C00914200D919600323B46862689A43531B44
S1132C10954200D9C9E00F2B00DCC6E0012229004F
S1132C2013431143651961603800B5606B6000F0AF
S1132C303BF9200008304AE714287AD9542800D9EF
S1132C40BAE06E239846280B80446F30C10096E6A4
S1132C505A0A042A73D9142A00D9D0E011005C322C
S1132C605B31D20008235B429C46B218944463460D
S1132C709A6803239846944500D1ABE043465168D3
S1132C809943894500D395E092689445F6D163460B
S1132C90DA6873686146E260A1609460CC60B6E66D
S1132CA0012360191D43656070613061C2608260F8
S1132CB01A004B460A4342603800E15000F0F4F831
S1132CC02000083003E7C0465C040020FF01000038
S1132CD064080020C40800200F100000940800209D
S1132CE008100000BC080020C008002073688EE6AD
S1132CF008239B46073BDC449B46DA444346524642
S1132D00134200D097E637E0DC680230A34200D1DA
S1132D1055E6CAE60122E318596838000A435A60A6
S1132D20E368A268D3609A6000F0BEF8200008301F
S1132D30CDE65B23984680445C30C1001FE69A09C7
S1132D40110039323831D2008CE7B44200D05AE74E
S1132D504F4B009A9A461B689C46534662441100A6
S1132D601A60FFE608235B429C46E1444B469B689D
S1132D700138994500D084E043460342F2D1736898
S1132D808B4373604900994200D9B5E6002900D10C
S1132D90B2E650460B4200D048E6490004300B42EC
S1132DA0FBD043E601234A465360380000F07CF828
S1132DB000208CE694466AE7AA235B00984211D867
S1132DC0DD3B9846E80B80447830C100D7E580238A
S1132DD05B01DDE68910023B8B407268134373602C
S1132DE0624657E72B4B98421CD87C239846A80C84
S1132DF080447D30C100C2E51033009399E6542A23
S1132E0026D84B461A0B11006F326E31D20029E7D7
S1132E101B0500D0A6E60120009BB268434403438F
S1132E205360E6E6FE217E237F2089009846A6E5CE
S1132E30002301209B46BDE6210038000831FFF73E
S1132E4031FC53461968D4E65B464A461A6094E658
S1132E50AA2149008A4206D84B46DA0B110078327F
S1132E607731D200FEE60B498A4206D84B469A0CCB
S1132E7011007D327C31D200F4E6FE227E219200E4
S1132E80F0E673687EE72B00E808083305E6C046E1
S1132E90940800205405000010B50248FFF70AFD0D
S1132EA010BDC046340D002010B50248FFF704FDE4
S1132EB010BDC046340D0020002370B5064C05003B
S1132EC008002360FEF7DAFA431C00D070BD2368C3
S1132ED0002BFBD02B60F9E7480D002070B50C00E7
S1132EE00E25495F00F076F9002803DB236D1B18DB
S1132EF0236570BDA389024A1340A381F9E7C04644
S1132F00FFEFFFFFF8B516001F000C228B5E0500D3
S1132F100C00DA0507D50E23C95E0022022300F057
S1132F2045F90C22A35E054A28001340A381320010
S1132F300E23E15E3B0000F01FF8F8BDFFEFFFFF3A
S1132F4070B50C000E25495F00F030F9431C06D023
S1132F508023A2895B011343A381206570BDA389EB
S1132F60014A1340A381F9E7FFEFFFFF10B50E23D9
S1132F70C95E00F08FF810BD70B50500080011009F
S1132F800022064C22601A00FEF79AFF431C00D070
S1132F9070BD2368002BFBD02B60F9E7480D00209F
S1132FA0F0B54E464546DE465746E0B5364D83B04D
S1132FB00600286898460F009146FFF77BFC334BC8
S1132FC01C68A4235B00E058002852D043681F2BE0
S1132FD013DC5A1C0192002E28D1019A02339B0063
S1132FE042601F502868FFF767FC002003B03CBC18
S1132FF090469946A246AB46F0BD254B002B3DD0EA
S1133000C8204000FFF78AFC002837D0A422002300
S11330105200A15843600160A050403283500432F2
S11330208350013301930023002ED6D09A00924698
S113303082444A46882154466250C4225200914632
S113304081444A468739994012688B460A4394461C
S11330504A4661461160842241465200A150022E24
S1133060BBD102005C468D32FF3211680C43146000
S1133070B3E720004D30FF30E050A7E72868FFF7A2
S11330801BFC01204042B1E758040020A49B00002F
S11330901D290000002370B5064C050008002360BC
S11330A0FEF7FEF9431C00D070BD2368002BFBD053
S11330B02B60F9E7480D002070B505000C1E40D0C8
S11330C0002802D0836B002B3ED00126636E33426E
S11330D033D1A3899B0543D521002800FFF736F996
S11330E0E36A0600002B04D0E16928009847002811
S11330F044DBA3891B062AD4216B002908D02300B2
S11331004033994202D02800FFF7CCFA002323630E
S1133110616C002904D02800FFF7C4FA002363641B
S1133120FFF746FA0023A381636EDB0714D5A06D75
S1133130FFF7BEFBFFF744FA04E00C22A35E002B6A
S1133140CAD10026300070BDFFF702FABDE721693D
S11331502800FFF7A7FACFE7A06DFFF7ADFBE6E77E
S1133160A06DFFF7A7FB0C22A35E002BB4D1636E06
S11331701E40E6D1A06DFFF79FFBE3E701267642F0
S1133180B7E7C046002370B5074C050008001100DE
S11331902360FEF788F9431C00D070BD2368002B20
S11331A0FBD02B60F9E7C046480D002070B5050040
S11331B0080011000022064C22601A00FEF778F97C
S11331C0431C00D070BD2368002BFBD02B60F9E7B3
S11331D0480D002070B50500080011000022064CBF
S11331E022601A00FEF758FE431C00D070BD23680D
S11331F0002BFBD02B60F9E7480D002000000000F5
S1133200000000000000000000101010101000006A
S113321010000000006C484800000000000000009E
S1133220001414287C287C285050000000103840DA
S11332304038487010100000002050200C70081412
S1133240080000000000001820205448340000004A
S1133250001010101000000000000000000808100A
S1133260101010101008080000202010101010106A
S11332701020200000107C1028280000000000000E
S11332800000101010FE10101000000000000000DC
S1133290000000181030200000000000007C000036
S11332A000000000000000000000003030000000BA
S11332B00004040808101020204000000038444492
S11332C04444444438000000003010101010101022
S11332D07C00000000384404081020447C000000F6
S11332E0003844041804044438000000000C14148A
S11332F024447E040E000000003C202038040444D2
S113330038000000001C2040784444443800000089
S1133310007C4404080808101000000000384444ED
S1133320384444443800000000384444443C040811
S11333307000000000000030300000303000000059
S113334000000018180000183020000000000C10C5
S1133350608060100C000000000000007C007C0015
S1133360000000000000C02018041820C000000065
S11333700000182404081000300000003844444CB5
S113338054544C40443800000030102828287C4411
S1133390EE00000000F8444478444444F80000007F
S11333A0003C4440404040443800000000F04844A1
S11333B044444448F000000000FC44507050404431
S11333C0FC000000007E2228382820207000000025
S11333D0003C4440404E44443800000000EE444465
S11333E07C444444EE000000007C101010101010C7
S11333F07C000000003C08080848484830000000F1
S113340000EE444850704844E6000000007020205C
S1133410202024247C00000000EE6C6C54544444AE
S1133420EE00000000EE64645454544CEC000000C0
S113343000384444444444443800000000782424C0
S1133440243820207000000000384444444444449C
S1133450381C000000F8444444784844E20000006A
S113346000344C40380404645800000000FE9210FC
S1133470101010103800000000EE4444444444444A
S11334803800000000EE44442828281010000000F2
S113349000EE4444545454542800000000C6442808
S11334A010102844C600000000EE44282810101014
S11334B038000000007C4408101020447C00000008
S11334C00038202020202020202038000040202008
S11334D02010100808080000003808080808080828
S11334E00808380000101028440000000000000004
S11334F00000000000000000000000FE00100800B2
S1133500000000000000000000000038443C444477
S11335103E00000000C0405864444444F8000000E9
S11335200000003C4440404438000000000C0434D7
S11335304C4444443E00000000000038447C4040B9
S11335403C000000001C207C202020207C00000087
S1133550000000364C4444443C04380000C0405849
S113356064444444EE000000001000701010101079
S11335707C000000001000780808080808087000A3
S113358000C0405C48705048DC000000003010105F
S1133590101010107C000000000000E85454545433
S11335A0FE000000000000D864444444EE00000023
S11335B0000000384444444438000000000000D8AF
S11335C0644444447840E000000000364C444444E1
S11335D03C040E000000006C302020207C00000021
S11335E00000003C44380444780000000000207CC3
S11335F0202020221C000000000000CC4444444C45
S113360036000000000000EE4444282810000000AA
S1133610000000EE4454545428000000000000CC84
S113362048303048CC000000000000EE4424281844
S1133630101078000000007C481020447C0000003A
S113364000081010101020101010080000101010A6
S1133650101010101010000000201010101008108E
S1133660101020000000000000245800000000009A
S11336700000000000000000000000000000000046
S11336800000000000000000000000000000000036
S113369000000C000C000C000C000C000C000C00D2
S11336A00C0000000C0000000000000000000000FE
S11336B0000000001DC01DC00880088008800000B4
S11336C000000000000000000000000000000000F6
S11336D000000D800D800D800D803FC01B003FC099
S11336E01B001B001B001B0000000000000000006A
S11336F004001F803180318038001E000F000380D9
S1133700318031803F00040004000000000000000C
S1133710000018002400240018C007801E00318017
S11337200240024001800000000000000000000090
S1133730000000000F001800180018000C001D8085
S1133740370033001D80000000000000000000006E
S11337500000000007000700020002000200000051
S11337600000000000000000000000000000000055
S113377000000300030006000E000C000C000C0007
S11337800C000E000600030003000000000000000F
S11337900000180018000C000600060006000600D1
S11337A0060006000C001C001800000000000000C9
S11337B00000060006003FC03FC00F001F801980B4
S11337C000000000000000000000000000000000F5
S11337D00000000000000400040004003F80040016
S11337E004000400000000000000000000000000CD
S11337F000000000000000000000000000000000C5
S11338000000060004000C0008000800000000008E
S11338100000000000000000000000003F800000E5
S11338200000000000000000000000000000000094
S11338300000000000000000000000000000000084
S113384000000C000C00000000000000000000005C
S113385000C000C0018001800300030006000C00CA
S11338600C001800180030003000000000000000B8
S113387000000E001B0031803180318031803180A6
S113388031801B000E00000000000000000000005A
S1133890000006003E0006000600060006000600C2
S11338A0060006003FC00000000000000000000009
S11338B000000F00198031803180030006000C00E5
S11338C0180030003F8000000000000000000000ED
S11338D000003F006180018003001F00038001801D
S11338E0018061803F000000000000000000000033
S11338F00000070007000F000B001B00130033003B
S11339003F8003000F800000000000000000000062
S113391000001F801800180018001F00118001808B
S1133920018021801F000000000000000000000052
S1133930000007801C0018003000370039803180F7
S1133940318019800F00000000000000000000001A
S113395000007F0043000300060006000600060086
S11339600C000C000C00000000000000000000002F
S113397000001F003180318031801F003180318090
S1133980318031801F0000000000000000000000B2
S113399000001E0033003180318033801D8001809F
S11339A0030007003C0000000000000000000000CD
S11339B000000000000000000C000C0000000000EB
S11339C000000C000C0000000000000000000000DB
S11339D000000000000000000300030000000000DD
S11339E000000600040008000800000000000000B9
S11339F00000000000C0030004001800600018006C
S1133A000400030000C000000000000000000000EB
S1133A10000000000000000000007FC000007FC024
S1133A200000000000000000000000000000000092
S1133A3000000000600018000400030000C0030040
S1133A4004001800600000000000000000000000F6
S1133A50000000001F0031803180018007000C004D
S1133A600C0000000C00000000000000000000003A
S1133A7000000E0011002100210027002900290068
S1133A802700200011000E000000000000000000CC
S1133A90000000003F000F000900198019801F80FA
S1133AA030C030C079E000000000000000000000D9
S1133AB0000000007F003180318031803F00318080
S1133AC0318031807F000000000000000000000011
S1133AD0000000001F4030C06040600060006000D3
S1133AE0604030801F000000000000000000000063
S1133AF0000000007F00318030C030C030C030C0D2
S1133B0030C031807F000000000000000000000091
S1133B10000000007F803080308032003E003200A0
S1133B20308030807F800000000000000000000032
S1133B30000000007FC03040304032003E003200C0
S1133B40300030007C000000000000000000000095
S1133B50000000001E80318060806000600067C04B
S1133B60618031801F0000000000000000000000A0
S1133B70000000007BC03180318031803F80318083
S1133B80318031807BC00000000000000000000094
S1133B90000000003FC00600060006000600060004
S1133BA0060006003FC00000000000000000000006
S1133BB0000000001FC003000300030003006300B3
S1133BC0630063003E0000000000000000000000ED
S1133BD0000000007BC03180330036003C003E0012
S1133BE03300318079C000000000000000000000B4
S1133BF0000000007E00180018001800180018408B
S1133C00184018407FC000000000000000000000C1
S1133C1000000000E0E060C071C07BC06AC06EC0FC
S1133C2064C060C0FBE00000000000000000000071
S1133C300000000073C0318039803D8035803780BA
S1133C403380318079800000000000000000000013
S1133C50000000001F00318060C060C060C060C010
S1133C6060C031801F000000000000000000000060
S1133C70000000007F0031803180318031803F00BE
S1133C80300030007E000000000000000000000052
S1133C90000000001F00318060C060C060C060C0D0
S1133CA060C031801F000CC01F80000000000000B5
S1133CB0000000007F003180318031803E003300FD
S1133CC0318031807CE00000000000000000000032
S1133CD0000000001F803180318038001F00038005
S1133CE0318031803F00000000000000000000002F
S1133CF0000000007F804C804C804C800C000C0045
S1133D000C000C003F000000000000000000000058
S1133D10000000007BC031803180318031803180EF
S1133D20318031801F00000000000000000000000E
S1133D30000000007BC0318031801B001B001B0091
S1133D400A000E000E000000000000000000000049
S1133D5000000000FBE060C064C06EC06EC02A803A
S1133D603B803B8031800000000000000000000028
S1133D70000000007BC031801B000E000E000E000E
S1133D801B0031807BC00000000000000000000028
S1133D900000000079E030C019800F000600060022
S1133DA0060006001F800000000000000000000064
S1133DB0000000003F8021802300060004000C0066
S1133DC0188030803F8000000000000000000000E8
S1133DD00000078006000600060006000600060034
S1133DE00600060006000600078000000000000030
S1133DF030003000180018000C000C00060003000E
S1133E0003000180018000C000C000000000000029
S1133E1000001E000600060006000600060006005C
S1133E2006000600060006001E0000000000000058
S1133E3004000A000A001100208020800000000015
S1133E40000000000000000000000000000000006E
S1133E50000000000000000000000000000000005E
S1133E600000000000000000000000000000FFE06F
S1133E700800040002000000000000000000000030
S1133E80000000000000000000000000000000002E
S1133E9000000000000000001F00018001801F805E
S1133EA0318033801DC000000000000000000000CD
S1133EB000007000300030003700398030C030C05E
S1133EC030C03980770000000000000000000000CE
S1133ED000000000000000001E803180608060004F
S1133EE0608031801F00000000000000000000001E
S1133EF000000380018001801D8033806180618027
S1133F00618033801DC0000000000000000000003C
S1133F1000000000000000001F00318060C07FC06E
S1133F20600030C01F80000000000000000000009E
S1133F30000007E00C000C003F800C000C000C009B
S1133F400C000C003F800000000000000000000096
S1133F5000000000000000001DC03380618061800B
S1133F60618033801D80018001801F0000000000FB
S1133F70000070003000300037003980318031801B
S1133F80318031807BC00000000000000000000090
S1133F9000000600060000001E00060006000600E1
S1133FA0060006003FC00000000000000000000002
S1133FB000000600060000003F00030003000300A9
S1133FC0030003000300030003003E0000000000A0
S1133FD00000700030003000378036003C003C00A8
S1133FE03600330077C0000000000000000000002D
S1133FF000001E000600060006000600060006007B
S1134000060006003FC000000000000000000000A1
S113401000000000000000007F8036C036C036C0BB
S113402036C036C076E0000000000000000000004A
S113403000000000000000007700398031803180EA
S1134040318031807BC000000000000000000000CF
S113405000000000000000001F00318060C060C04C
S113406060C031801F00000000000000000000005C
S113407000000000000000007700398030C030C02C
S113408030C039803700300030007C000000000070
S113409000000000000000001DC0338061806180CA
S11340A0618033801D800180018007C00000000012
S11340B000000000000000007B801CC018001800F5
S11340C0180018007F00000000000000000000003D
S11340D000000000000000001F8031803C001F0031
S11340E0038031803F000000000000000000000059
S11340F000001800180018007F00180018001800AD
S1134100180018800F0000000000000000000000EC
S11341100000000000000000738031803180318095
S1134120318033801DC0000000000000000000004A
S113413000000000000000007BC0318031801B00C3
S11341401B000E000E000000000000000000000034
S11341500000000000000000F1E060C064C06EC018
S11341603B803B8031800000000000000000000024
S113417000000000000000007BC01B000E000E00C9
S11341800E001B007BC000000000000000000000C7
S1134190000000000000000079E030C019801980A0
S11341A00B000F00060006000C003E00000000009B
S11341B000000000000000003F80218003000E008A
S11341C0180030803F800000000000000000000064
S11341D0000006000C000C000C000C000C00180081
S11341E00C000C000C000C00060000000000000095
S11341F00000060006000600060006000600060091
S1134200060006000600060006000000000000008C
S113421000000C000600060006000600060003006D
S113422006000600060006000C0000000000000066
S113423000000000000000000000180024800300BB
S1134240000000000000000000000000000000006A
S1134250000000000000000000000000000000005A
S1134260000000000000000000000000000000004A
S11342700000000000000000000007000700070025
S1134280070007000700070002000200000000000A
S1134290070007000000000000000000000000000C
S11342A0000000001CE01CE01CE00840084008403E
S11342B000000000000000000000000000000000FA
S11342C000000000000000000CC00CC00CC00CC0BA
S11342D00CC03FF03FF00CC00CC03FF03FF00CC0EE
S11342E00CC00CC00CC00CC000000000000000009A
S11342F00300030007E00FE0186018001F000FC060
S113430000E0186018601FC01F8003000300030052
S1134310000000000000000000001C002200220039
S113432022001C6001E00F803C0031C0022002200A
S1134330022001C000000000000000000000000096
S113434000000000000003E00FE00C000C00060079
S11343500F301FF019E018C01FF007B00000000074
S11343600000000000000000000000000380038043
S113437003800100010001000000000000000000B3
S11343800000000000000000000000000000000029
S1134390000000C000C00180018001800300030010
S11343A0030003000300030001800180018000C0BA
S11343B000C000000000000000000C000C0006001B
S11343C006000600030003000300030003000300CB
S11343D00600060006000C000C00000000000000AF
S11343E000000300030003001B601FE00780078038
S11343F00FC00CC00000000000000000000000001E
S113440000000000000000000000000000000300A5
S11344100300030003003FF03FF003000300030028
S11344200300000000000000000000000000000085
S11344300000000000000000000000000000000078
S113444000000000000003800300030006000600D3
S11344500400000000000000000000000000000054
S11344600000000000003FE03FE00000000000000A
S11344700000000000000000000000000000000038
S11344800000000000000000000000000000000028
S1134490000000000000038003800380000000008F
S11344A000000000000000000060006000C000C0C8
S11344B000C00180018003000300060006000C0018
S11344C00C000C00180018000000000000000000A0
S11344D000000F801FC018C0306030603060306052
S11344E030603060306018C01FC00F8000000000D2
S11344F00000000000000000000003001F001F0077
S1134500030003000300030003000300030003008F
S11345101FE01FE000000000000000000000000099
S113452000000F801FC038E03060006000C00180D0
S1134530030006000C0018003FE03FE0000000000C
S1134540000000000000000000000F803FC030E0C9
S1134550006000E007C007C000E00060006060E0A9
S11345607FC03F8000000000000000000000000049
S1134570000001C003C003C006C00CC00CC018C0BA
S113458030C03FE03FE000C003E003E00000000073
S1134590000000000000000000001FC01FC0180041
S11345A018001F801FC018E000600060006030E049
S11345B03FC01F8000000000000000000000000059
S11345C0000003E00FE01E001800380037803FC0F1
S11345D038E03060306018E01FC007800000000041
S11345E0000000000000000000003FE03FE03060F9
S11345F0006000C000C000C0018001800180030091
S113460003000300000000000000000000000000A0
S113461000000F801FC038E0306038E01FC01FC0AA
S113462038E03060306038E01FC00F8000000000C8
S1134630000000000000000000000F001FC038C090
S11346403060306038E01FE00F6000E000C003C05D
S11346503F803E0000000000000000000000000059
S113466000000000000000000000038003800380BD
S113467000000000000003800380038000000000AD
S11346800000000000000000000000000000000026
S1134690000001C001C001C0000000000000038050
S11346A003000600060004000000000000000000F3
S11346B0000000000000003000F003C007001C00F0
S11346C078001C00070003C000F000300000000068
S11346D000000000000000000000000000000000D6
S11346E000007FF07FF0000000007FF07FF000000A
S11346F000000000000000000000000000000000B6
S113470000000000000030003C000F00038000E0C7
S1134710007800E003800F003C003000000000003F
S11347200000000000000000000000000F801FC017
S113473018601860006001C00380030000000000DE
S11347400700070000000000000000000000000057
S1134750000003800C8008401040104011C012403B
S11347601240124011C010000800084007800000E9
S11347700000000000000000000000001F801F80F7
S1134780038006C006C00CC00C601FE01FE0303080
S11347907878787800000000000000000000000035
S11347A0000000003F803FC01860186018E01FC080
S11347B01FE01870183018303FF03FE00000000090
S11347C000000000000000000000000007B00FF02F
S11347D01C703830300030003000300038301C702D
S11347E00FE007C00000000000000000000000000F
S11347F0000000007F807FC030E030703030303007
S113480030303030307030E07FC07F8000000000F6
S11348100000000000000000000000003FF03FF036
S11348201830183019801F801F80198018301830F4
S11348303FF03FF000000000000000000000000016
S1134840000000003FF03FF01830183019801F803E
S11348501F801980180018003F003F00000000006E
S113486000000000000000000000000007B01FF07E
S1134870187030303000300031F831F830301830F2
S11348801FF007C00000000000000000000000004E
S1134890000000003CF03CF01860186018601FE055
S11348A01FE01860186018603CF03CF00000000045
S11348B00000000000000000000000001FE01FE0F6
S11348C003000300030003000300030003000300CC
S11348D01FE01FE0000000000000000000000000D6
S11348E00000000003F803F800600060006000604E
S11348F030603060306030E03FC00F800000000066
S11349000000000000000000000000003EF83EF837
S113491018E019801B001F001D8018C018C0186003
S11349203E783E3800000000000000000000000057
S1134930000000003F003F000C000C000C000C00C5
S11349400C000C300C300C303FF03FF00000000045
S11349500000000000000000000000007878787873
S113496038703CF034B037B037B033303330303097
S11349707CF87CF80000000000000000000000004B
S11349800000000039F03DF01C601E601E601B60DA
S11349901B6019E019E018E03EE03E6000000000F2
S11349A000000000000000000000000007800FC0AD
S11349B01CE03870303030303030303038701CE02B
S11349C00FC007800000000000000000000000008D
S11349D0000000003FC03FE0187018301830187015
S11349E01FE01FC0180018003F003F000000000037
S11349F000000000000000000000000007800FC05D
S1134A001CE03870303030303030303038701CE0DA
S1134A100FC0078007B00FF00CE00000000000009A
S1134A20000000003FC03FE01870183018701FE00D
S1134A301FC018E0186018703E383E1800000000CF
S1134A400000000000000000000000000FB01FF094
S1134A503870303038001F8007E000703030387014
S1134A603FE037C00000000000000000000000002C
S1134A70000000003FF03FF03330333033300300A8
S1134A8003000300030003000FC00FC00000000078
S1134A900000000000000000000000003CF03CF0BA
S1134AA018601860186018601860186018601CE0BE
S1134AB00FC007800000000000000000000000009C
S1134AC00000000078F078F03060306018C018C042
S1134AD00D800D800D800700070007000000000016
S1134AE00000000000000000000000007C7C7C7CD2
S1134AF0301833983398339836D816D01C701C70FD
S1134B001C701830000000000000000000000000CD
S1134B100000000078F078F0306018C00D800700C5
S1134B2007000D8018C0306078F078F000000000B5
S1134B300000000000000000000000003CF03CF019
S1134B4018600CC007800780030003000300030003
S1134B500FC00FC0000000000000000000000000B3
S1134B60000000001FE01FE0186018C0018003006F
S1134B70030006000C6018601FE01FE00000000046
S1134B800000000000000000000003C003C0030098
S1134B9003000300030003000300030003000300F9
S1134BA003000300030003C003C000000000000072
S1134BB0180018000C000C000C000600060003008E
S1134BC003000180018000C000C000C000600060DC
S1134BD0000000000000000000000F000F000300B0
S1134BE003000300030003000300030003000300A9
S1134BF00300030003000F000F000000000000008A
S1134C000000020007000D8018C030602020000062
S1134C100000000000000000000000000000000090
S1134C200000000000000000000000000000000080
S1134C300000000000000000000000000000000070
S1134C40000000000000000000000000FFFCFFFC6A
S1134C5000000400030000800000000000000000C9
S1134C600000000000000000000000000000000040
S1134C700000000000000000000000000000000030
S1134C8000000FC01FE000600FE01FE0386030E05C
S1134C903FF01F7000000000000000000000000052
S1134CA00000700070003000300037803FE0386052
S1134CB030303030303038607FE0778000000000E2
S1134CC000000000000000000000000000000000E0
S1134CD0000007B01FF0183030303000300038309A
S1134CE01FF00FC0000000000000000000000000E2
S1134CF00000007000700030003007B01FF0187022
S1134D0030303030303038701FF807B80000000001
S1134D10000000000000000000000000000000008F
S1134D20000007801FE018603FF03FF030001830AB
S1134D301FF007C000000000000000000000000099
S1134D40000003F007F0060006001FE01FE0060065
S1134D5006000600060006001FE01FE00000000039
S1134D60000000000000000000000000000000003F
S1134D70000007B81FF81870303030303030187029
S1134D801FF007B0003000700FE00FC000000000FB
S1134D90000038003800180018001BC01FE01C6019
S1134DA018601860186018603CF03CF000000000C7
S1134DB000000000000000000000030003000000E9
S1134DC000001F001F000300030003000300030092
S1134DD01FE01FE0000000000000000000000000D1
S1134DE0000003000300000000001FC01FC000C03B
S1134DF000C000C000C000C000C000C000C001C0AE
S1134E003F803F0000000000000038003800180018
S1134E1018001BE01BE01B001E001E001B00198075
S1134E2039F039F00000000000000000000000002C
S1134E3000001F001F000300030003000300030021
S1134E4003000300030003001FE01FE00000000054
S1134E50000000000000000000000000000000004E
S1134E6000007EE07FF03330333033303330333082
S1134E707BB87BB8000000000000000000000000C8
S1134E80000000000000000000003BC03FE01C6088
S1134E9018601860186018603CF03CF000000000D6
S1134EA000000000000000000000000000000000FE
S1134EB0000007801FE01860303030303030186058
S1134EC01FE0078000000000000000000000000058
S1134ED00000000000000000000077807FE03860E0
S1134EE030303030303038603FE0378030003000D0
S1134EF07C007C00000000000000000000000000B6
S1134F00000007B81FF81870303030303030187097
S1134F101FF007B00030003000F800F80000000077
S1134F20000000000000000000003CE03DF00F30F5
S1134F300E000C000C000C003FC03FC0000000003D
S1134F40000000000000000000000000000000005D
S1134F50000007E01FE018601E000FC001E01860A9
S1134F601FE01F800000000000000000000000009F
S1134F70000000000C000C000C003FE03FE00C00BF
S1134F800C000C000C000C300FF007C000000000F7
S1134F90000000000000000000000000000000000D
S1134FA0000038E038E0186018601860186018E0F5
S1134FB01FF00F700000000000000000000000005F
S1134FC00000000000000000000078F078F030607D
S1134FD018C018C00D800D800700070000000000F5
S1134FE000000000000000000000000000000000BD
S1134FF0000078F078F03260326037E01DC01DC0E8
S113500018C018C0000000000000000000000000EC
S1135010000000000000000000003CF03CF00CC068
S11350200780030007800CC03CF03CF00000000047
S1135030000000000000000000000000000000006C
S1135040000078F078F0306018C018C00D800F8030
S11350500700060006000C007F007F00000000002F
S1135060000000000000000000001FE01FE018C066
S11350700180030006000C601FE01FE00000000038
S11350800000000000000000000001C003C0030095
S1135090030003000300030007000E0007000300E1
S11350A003000300030003C001C00000000000006F
S11350B000000300030003000300030003000300D7
S11350C003000300030003000300030003000300C4
S11350D0030000000000000000001C001E00060089
S11350E0060006000600060007000380070006000D
S11350F00600060006001E001C0000000000000060
S11351000000000000000000000000000E003F301E
S113511033F001E000000000000000000000000087
S1135120000000000000000000000000000000007B
S1135130000000000000000000000000000000006B
S1135140000000000000000000000000000000005B
S1135150000000000000000000000000000000004B
S1135160000000000000000000000000000000003B
S1135170000000000000038000038000038000039F
S1135180800003800003800003800003800003800C
S11351900001000001000000000000000003800086
S11351A00380000000000000000000000000000078
S11351B000000000000000000000000000000000EB
S11351C0000E70000E70000E700004200004200019
S11351D00420000420000000000000000000000083
S11351E000000000000000000000000000000000BB
S11351F000000000000000000000000000000000AB
S11352000000000000000660000660000660000662
S113521060000660003FF8003FF8000660000CC024
S1135220003FF8003FF8000CC0000CC0000CC000A8
S11352300CC0000CC00000000000000000000000D2
S11352400000000000000000000000018000018058
S11352500007B0000FF0001870001870001C000068
S11352600F800007E00000F0001830001C30001C24
S113527070001FE0001BC00001800001800001805D
S11352800001800000000000000000000000000099
S11352900000000000000780000FC0001CE00018A0
S11352A060001860001CE0000FF80007E0001FF029
S11352B00007380006180006180007380003F0003D
S11352C001E00000000000000000000000000000F9
S11352D000000000000000000000000000000000CA
S11352E00000000003F00007F0000C60000C000058
S11352F00C00000600000700000F9C001DFC0018B5
S1135300F0001870000FFC0007DC00000000000033
S11353100000000000000000000000000000000089
S11353200000000000000000000380000380000370
S113533080000100000100000100000100000000E5
S11353400000000000000000000000000000000059
S11353500000000000000000000000000000000049
S11353600000000000000000000000000000001821
S11353700000380000700000F00000E00000E000D1
S113538001C00001C00001C00001C00001C0000153
S1135390C00000E00000E000007000007000003871
S11353A000001800000000000000000000000000E1
S11353B00000000000001800001C00000E00000E99
S11353C00000070000070000038000038000038042
S11353D00003800003800003800007000007000032
S11353E00F00000E00001C00001800000000000068
S11353F00000000000000000000000000000018028
S1135400000180000180001DB8001FF80007E000C3
S113541003C00003C0000660000660000000000036
S11354200000000000000000000000000000000078
S11354300000000000000000000000000000000068
S113544000000000000000000000000001800001D6
S113545080000180000180000180003FFC003FFCCF
S113546000018000018000018000018000018000B3
S11354700000000000000000000000000000000028
S11354800000000000000000000000000000000018
S11354900000000000000000000000000000000008
S11354A000000000000000000000000000000000F8
S11354B0000000E00000C00001C000018000018085
S11354C000030000030000000000000000000000D2
S11354D000000000000000000000000000000000C8
S11354E000000000000000000000001FF8001FF88A
S11354F000000000000000000000000000000000A8
S11355000000000000000000000000000000000097
S11355100000000000000000000000000000000087
S11355200000000000000000000000000000000077
S11355300000000000000000000000000000000067
S1135540000003C00003C00003C00000000000000E
S11355500000000000000000000000000000000047
S1135560001800001800003800003000007000002F
S1135570600000600000C00000C0000180000180E5
S1135580000300000300000600000600000E0000F7
S11355900C00001C000018000018000000000000AF
S11355A0000000000000000000000000000003C034
S11355B00007E0000C30000C300018180018180028
S11355C01818001818001818001818001818000CDB
S11355D030000C300007E00003C0000000000000B1
S11355E000000000000000000000000000000000B7
S11355F00000000000000080000780001F80001DE4
S11356008000018000018000018000018000018091
S1135610000180000180000180000180001FF8006B
S11356201FF800000000000000000000000000005F
S1135630000000000000000000000000000007C09F
S1135640001FF00038300030180030180000180037
S113565000300000600001C0000380000600000C60
S113566000001800003FF8003FF8000000000000B0
S11356700000000000000000000000000000000026
S113568000000000000003C0000FE0000C700000E8
S1135690300000300000600003C00003E000007030
S11356A0000018000018000018001838001FF0004F
S11356B00FC0000000000000000000000000000017
S11356C0000000000000000000000000000000E0F6
S11356D00001E00001E000036000066000066000D5
S11356E00C60000C60001860003060003FF8003F60
S11356F0F80000600003F80003F800000000000058
S11357000000000000000000000000000000000095
S11357100000000000001FF0001FF0001800001837
S113572000001800001BC0001FF0001C300000180F
S1135730000018000018000018003030003FF0008E
S11357400FC0000000000000000000000000000086
S1135750000000000000000000000000000000F84D
S11357600003F8000700000E00000C000018000001
S11357701BC0001FF0001C30001818001818001877
S113578018000C38000FF00003E0000000000000D7
S11357900000000000000000000000000000000005
S11357A00000000000001FF8001FF800181800187F
S11357B0380000300000300000700000600000601D
S11357C00000E00000C00000C00001C00001800033
S11357D00180000000000000000000000000000044
S11357E0000000000000000000000000000007E0CE
S11357F0000FF0001C38001818001818000C3000B6
S113580007E00007E0000C30001818001818001812
S113581018001C38000FF00007E000000000000032
S11358200000000000000000000000000000000074
S113583000000000000007C0000FF0001C3000183A
S113584018001818001818000C38000FF80003D8B6
S11358500000180000300000700000E0001FC000CD
S11358601F00000000000000000000000000000015
S11358700000000000000000000000000000000024
S11358800000000000000000000003C00003C0008E
S113589003C0000000000000000000000000000041
S11358A0000003C00003C00003C0000000000000AB
S11358B000000000000000000000000000000000E4
S11358C000000000000000000000000000000000D4
S11358D0000000F00000F00000F0000000000000F4
S11358E00000000000000000E00001C00001800092
S11358F0018000030000020000000000000000001E
S11359000000000000000000000000000000000093
S113591000000000001C00003C0000F00003C00078
S11359200F00003C0000F000003C00000F000003EA
S1135930C00000F000003C00001C0000000000005B
S11359400000000000000000000000000000000053
S11359500000000000000000000000000000000043
S113596000000000007FFC007FFC0000000000003D
S1135970007FFC007FFC000000000000000000002D
S11359800000000000000000000000000000000013
S11359900000000000000000000000000000000003
S11359A0000000007000007800001E000007800066
S11359B001E000007800001E0000780001E000070C
S11359C080001E000078000070000000000000004D
S11359D000000000000000000000000000000000C3
S11359E000000000000000000007C0000FE00018E5
S11359F0700018300018300000700000E00003C090
S1135A000003800003000000000000000007000005
S1135A10070000000000000000000000000000007B
S1135A20000000000000000000000000000003E08F
S1135A300007F0000E38000C180018780018F80061
S1135A4019D80019980019980019980018F8001826
S1135A5078001800000C00000E180007F80003E09E
S1135A600000000000000000000000000000000032
S1135A700000000000000000001F80001FC00001A3
S1135A80C0000360000360000630000630000C30E4
S1135A90000FF8001FF800180C00300C00FC7F0009
S1135AA0FC7F000000000000000000000000000077
S1135AB000000000000000000000000000000000E2
S1135AC0007FE0007FF00018380018180018180054
S1135AD01838001FF0001FF800181C00180C0018DC
S1135AE00C00180C007FF8007FF00000000000009C
S1135AF000000000000000000000000000000000A2
S1135B0000000000000000000003EC000FFC001C7B
S1135B101C00180C00300C00300000300000300075
S1135B2000300000300000180C001C1C000FF800AE
S1135B3003F000000000000000000000000000006E
S1135B400000000000000000000000000000000051
S1135B50007FC0007FF000183800181800180C00EF
S1135B60180C00180C00180C00180C00180C001865
S1135B7018001838007FF0007FE0000000000000EB
S1135B800000000000000000000000000000000011
S1135B900000000000000000007FF8007FF80018FB
S1135BA018001818001998001980001F80001F8021
S1135BB0001980001998001818001818007FF800C0
S1135BC07FF800000000000000000000000000005A
S1135BD000000000000000000000000000000000C1
S1135BE0003FFC003FFC000C0C000C0C000CCC0033
S1135BF00CC0000FC0000FC0000CC0000CC0000C93
S1135C0000000C00003FC0003FC000000000000086
S1135C100000000000000000000000000000000080
S1135C2000000000000000000003EC000FFC001C5A
S1135C301C00180C00300C0030000030000030FE56
S1135C400030FE00300C00380C001C1C000FFC005F
S1135C5003F000000000000000000000000000004D
S1135C600000000000000000000000000000000030
S1135C70007E7E007E7E0018180018180018180098
S1135C801818001FF8001FF800181800181800183A
S1135C9018001818007E7E007E7E000000000000C0
S1135CA000000000000000000000000000000000F0
S1135CB00000000000000000001FF8001FF80001B1
S1135CC080000180000180000180000180000180CB
S1135CD0000180000180000180000180001FF800A5
